:020000000115E8
:02000300014AB0
:02000B00015999
:1000130001477580009000E5752100752200752366
:1000230000752400D2AFD2A8D2AAD2A9D288D28A8C
:10003300758901D28C758CC3758A507B2875813084
:1000430011680143B28C32752100752200752300BB
:10005300752400C28C32DB0411957B28758CC37523
:100063008A50D28C32758001E52193F811C711BEF5
:10007300758002E52293F811C711BE758004E5234C
:1000830093F811C711BE758008E52493F811C711C1
:10009300BE220524740AB5242175240005237406A1
:1000A300B523177523000522740AB5220D752200A6
:1000B30005217406B52103752100227FC87E0ADE5F
:1000C300FEDFFA2279087401FA587011C287D284CC
:1000D300C284EA23FAD9F2D285C28501E4D2870128
:0C00E300D122FC60DAF266B6BEE0FEF648
:00000001FF
