:02000000011DE0
:02000300016595
:02000B0001BD35
:02001300015991
:10001B0001CC7580009001E67521007522007523D7
:10002B0000752400D2AFD2A8D2A9D2ABD2BBD28852
:10003B00D28A758901D200758C3C758AB0758D3C5E
:10004B00758BB07B0A7D0A75813011E70155C2AA09
:10005B00314E208B02B28CD2AA32C2A8314E2089EB
:10006B0048C28CD28ED2AA7521007522007523004E
:10007B007524003162BCFF0280F9ECC3940650F387
:10008B008C2131573162BCFF0280F98C2231573100
:10009B0062BCFF0280F9ECC3940650F38C233157FA
:1000AB003162BCFF0280F98C24C28EC200D28CD28A
:1000BB00A832DB0431147B0A758C3C758AB0D28C68
:1000CB0032DD04B2007D0A758D3C758B0BD28E32FE
:1000DB003220000575800001E611E722758001E5ED
:1000EB002193F831C8314E758002E52293F831C85F
:1000FB00314E758004E52393F831C8314E75800875
:10010B00E52493F831C8314E22152474FFB52432FF
:10011B00752409152374FFB523287523051522743F
:10012B00FFB5221E752209152174FFB52114752107
:10013B0000752200752300752400C2AAC2933157A3
:10014B00D293227FC87E1EDEFEDFFA227525283170
:01015B004E55
:10015C0011DCD525F9227CFF11DC75A00FE5A0B4CC
:10016C000F0221C7314EE5A0B40F0221C7ACA07518
:10017C00A0F0E5A04C7CFFB4EE047C0021C7B4DEFB
:10018C00047C0121C7B4BE047C0221C7B47E047C6C
:10019C000321C7B4ED047C0421C7B4DD047C052124
:1001AC00C7B4BD047C0621C7B47D047C0721C7B449
:1001BC00EB047C0821C7B4DB027C092279087401AA
:1001CC00FA587011C287D284C284EA23FAD9F2D2C7
:1001DC0085C28521E5D28721D222FC60DAF266B68F
:0401EC00BEE0FEF67D
:00000001FF
