:02000000011DE0
:020003000159A1
:02000B0001D121
:0200130001C525
:10001B0001E07580009001F67521007522007523B3
:10002B0000752400D2AFD2A8D2A9D2ABD2BBC28862
:10003B00C28A758911D200758C3C758AAF758DB1EA
:10004B00758BDF7B0A7D0A75813011EF0155C2A8D4
:10005B003160C28CD28ED2AA20895A7521007522AA
:10006B0000752300752400A20092013174BCFF02BD
:10007B0080F5ECC3940650EF8C21C2013169A200CC
:10008B0092023174BCFF0280F58C22C2023169A24C
:10009B000092033174BCFF0280F5ECC3940650EF61
:1000AB008C23C2033169A20092043174BCFF02801D
:1000BB00F58C24C204C28ED2A832C2AA3160208B26
:1000CB0002B28CD2AA32DB0431287B0A758C3C75C8
:1000DB008AAFD28C32DD04B2007D0A758DB1758B7F
:1000EB00DFD28E3220010B758001E52193F831DAD6
:1000FB00316020020B758002E52293F831DA316012
:10010B0020030B758004E52393F831DA316020046A
:10011B000B758008E52493F831DA316022152474CD
:10012B00FFB52430752409152374FFB523267523D9
:10013B0005152274FFB5221C752209152174FFB514
:10014B002112752100752200752300752400C293BE
:05015B003169D293227E
:100160007FC87E1EDEFEDFFA22752514316011EF96
:10017000D525F9227CFF11EF75A00FE5A0B40F0281
:1001800021D93160E5A0B40F0221D9ACA075A0F04F
:10019000E5A04C7CFFB4E7047C0021D9B4EB047CDF
:1001A0000121D9B4ED047C0221D9B4EE047C0321F1
:1001B000D9B4D7047C0421D9B4DB047C0521D9B49B
:1001C000DD047C0621D9B4DE047C0721D9B4B70450
:1001D0007C0821D9B4BB027C092279087401FA5841
:1001E0007004C28721E8D287D284C284EA23FAD974
:1001F000EED285C28522FC60DAF266B6BEE0FEF67B
:00000001FF
