:02000000011DE0
:020003000159A1
:02000B0001D121
:0200130001C525
:10001B0001E07580009002017521007522007523A7
:10002B0000752400D2AFD2A8D2A9D2ABD2BBC28862
:10003B00C28A758911D200758C3C758AAF758DB1EA
:10004B00758BDF7B0A7D0A75813011FA0155C2A8C9
:10005B00316BC28CD28ED2AA20895A75210075229F
:10006B0000752300752400A2009201317FBCFF02B2
:10007B0080F5ECC3940650EF8C21C2013174A200C1
:10008B009202317FBCFF0280F58C22C2023174A236
:10009B00009203317FBCFF0280F5ECC3940650EF56
:1000AB008C23C2033174A2009204317FBCFF028007
:1000BB00F58C24C204C28ED2A832C2AA316B208B1B
:1000CB0002B28CD2AA32DB0431337B0A758C3C75BD
:1000DB008AAFD28C32DD04B2007D0A758DB1758B7F
:1000EB00DFD28E3220000575800001F911FA222033
:1000FB00010B758001E52193F831E5316B20020B83
:10010B00758002E52293F831E5316B20030B758086
:10011B0004E52393F831E5316B20040B758008E57A
:10012B002493F831E5316B22152474FFB524307517
:10013B002409152374FFB52326752305152274FF97
:10014B00B5221C752209152174FFB52112752100EA
:06015B007522007523006F
:10016100752400C2933174D293227FC87E1EDEFEB5
:10017100DFFA22752514316B11FAD525F9227CFF9E
:1001810011FA75A00FE5A0B40F0221E4316BE5A0CF
:10019100B40F0221E4ACA075A0F0E5A04C7CFFB443
:1001A100E7047C0021E4B4EB047C0121E4B4ED0418
:1001B1007C0221E4B4EE047C0321E4B4D7047C0482
:1001C10021E4B4DB047C0521E4B4DD047C0621E4F4
:1001D100B4DE047C0721E4B4B7047C0821E4B4BB99
:1001E100027C092279087401FA587004C28721F34C
:1001F100D287D284C284EA23FAD9EED285C285227B
:0A020100FC60DAF266B6BEE0FEF61D
:00000001FF
